{
  "contractName": "Mydao",
  "abi": [
    {
      "inputs": [],
      "stateMutability": "nonpayable",
      "type": "constructor"
    },
    {
      "inputs": [],
      "name": "admin",
      "outputs": [
        {
          "internalType": "address",
          "name": "",
          "type": "address"
        }
      ],
      "stateMutability": "view",
      "type": "function"
    },
    {
      "inputs": [],
      "name": "isOwner",
      "outputs": [
        {
          "internalType": "bool",
          "name": "",
          "type": "bool"
        }
      ],
      "stateMutability": "view",
      "type": "function"
    },
    {
      "inputs": [],
      "name": "newAdmin",
      "outputs": [
        {
          "internalType": "bool",
          "name": "",
          "type": "bool"
        }
      ],
      "stateMutability": "view",
      "type": "function"
    },
    {
      "inputs": [],
      "name": "owner",
      "outputs": [
        {
          "internalType": "address",
          "name": "",
          "type": "address"
        }
      ],
      "stateMutability": "view",
      "type": "function"
    },
    {
      "inputs": [
        {
          "internalType": "uint256",
          "name": "",
          "type": "uint256"
        }
      ],
      "name": "proposals",
      "outputs": [
        {
          "internalType": "enum Mydao.proposalNames",
          "name": "proposalName",
          "type": "uint8"
        },
        {
          "internalType": "enum Mydao.ProposalStatus",
          "name": "proposalStatus",
          "type": "uint8"
        },
        {
          "internalType": "uint256",
          "name": "votesReceived",
          "type": "uint256"
        },
        {
          "internalType": "address",
          "name": "ProposalsubmitedBy",
          "type": "address"
        }
      ],
      "stateMutability": "view",
      "type": "function"
    },
    {
      "inputs": [],
      "name": "register",
      "outputs": [],
      "stateMutability": "payable",
      "type": "function"
    },
    {
      "inputs": [],
      "name": "myContribution",
      "outputs": [
        {
          "internalType": "uint256",
          "name": "",
          "type": "uint256"
        }
      ],
      "stateMutability": "view",
      "type": "function"
    },
    {
      "inputs": [
        {
          "internalType": "uint256",
          "name": "_id",
          "type": "uint256"
        }
      ],
      "name": "viewMembers",
      "outputs": [
        {
          "internalType": "address",
          "name": "",
          "type": "address"
        },
        {
          "internalType": "uint256",
          "name": "",
          "type": "uint256"
        }
      ],
      "stateMutability": "view",
      "type": "function"
    },
    {
      "inputs": [
        {
          "internalType": "uint256",
          "name": "_proposalId",
          "type": "uint256"
        }
      ],
      "name": "newSubmission",
      "outputs": [],
      "stateMutability": "payable",
      "type": "function"
    },
    {
      "inputs": [],
      "name": "viewSubmissionStatus",
      "outputs": [
        {
          "internalType": "enum Mydao.ProposalStatus",
          "name": "",
          "type": "uint8"
        }
      ],
      "stateMutability": "view",
      "type": "function"
    },
    {
      "inputs": [],
      "name": "viewSubmissionVotes",
      "outputs": [
        {
          "internalType": "uint256",
          "name": "",
          "type": "uint256"
        }
      ],
      "stateMutability": "view",
      "type": "function"
    },
    {
      "inputs": [],
      "name": "upVote",
      "outputs": [],
      "stateMutability": "nonpayable",
      "type": "function"
    },
    {
      "inputs": [],
      "name": "viewBalance",
      "outputs": [
        {
          "internalType": "uint256",
          "name": "",
          "type": "uint256"
        }
      ],
      "stateMutability": "view",
      "type": "function"
    },
    {
      "inputs": [],
      "name": "donate",
      "outputs": [],
      "stateMutability": "payable",
      "type": "function"
    },
    {
      "inputs": [],
      "name": "findResult",
      "outputs": [],
      "stateMutability": "nonpayable",
      "type": "function"
    }
  ],
  "bytecode": "0x608060405273e4a93c164f1c194dfb58c513d302e7d912e8915f600360006101000a81548173ffffffffffffffffffffffffffffffffffffffff021916908373ffffffffffffffffffffffffffffffffffffffff1602179055503480156200006657600080fd5b50336000806101000a81548173ffffffffffffffffffffffffffffffffffffffff021916908373ffffffffffffffffffffffffffffffffffffffff16021790555033600160006101000a81548173ffffffffffffffffffffffffffffffffffffffff021916908373ffffffffffffffffffffffffffffffffffffffff160217905550600860405180608001604052806000600281111562000130577f4e487b7100000000000000000000000000000000000000000000000000000000600052602160045260246000fd5b81526020016002808111156200016f577f4e487b7100000000000000000000000000000000000000000000000000000000600052602160045260246000fd5b8152602001600081526020013373ffffffffffffffffffffffffffffffffffffffff16815250908060018154018082558091505060019003906000526020600020906003020160009091909190915060008201518160000160006101000a81548160ff0219169083600281111562000210577f4e487b7100000000000000000000000000000000000000000000000000000000600052602160045260246000fd5b021790555060208201518160000160016101000a81548160ff0219169083600281111562000267577f4e487b7100000000000000000000000000000000000000000000000000000000600052602160045260246000fd5b02179055506040820151816001015560608201518160020160006101000a81548173ffffffffffffffffffffffffffffffffffffffff021916908373ffffffffffffffffffffffffffffffffffffffff1602179055505050600860405180608001604052806001600281111562000307577f4e487b7100000000000000000000000000000000000000000000000000000000600052602160045260246000fd5b815260200160028081111562000346577f4e487b7100000000000000000000000000000000000000000000000000000000600052602160045260246000fd5b8152602001600081526020013373ffffffffffffffffffffffffffffffffffffffff16815250908060018154018082558091505060019003906000526020600020906003020160009091909190915060008201518160000160006101000a81548160ff02191690836002811115620003e7577f4e487b7100000000000000000000000000000000000000000000000000000000600052602160045260246000fd5b021790555060208201518160000160016101000a81548160ff021916908360028111156200043e577f4e487b7100000000000000000000000000000000000000000000000000000000600052602160045260246000fd5b02179055506040820151816001015560608201518160020160006101000a81548173ffffffffffffffffffffffffffffffffffffffff021916908373ffffffffffffffffffffffffffffffffffffffff160217905550505060086040518060800160405280600280811115620004dd577f4e487b7100000000000000000000000000000000000000000000000000000000600052602160045260246000fd5b81526020016002808111156200051c577f4e487b7100000000000000000000000000000000000000000000000000000000600052602160045260246000fd5b8152602001600081526020013373ffffffffffffffffffffffffffffffffffffffff16815250908060018154018082558091505060019003906000526020600020906003020160009091909190915060008201518160000160006101000a81548160ff02191690836002811115620005bd577f4e487b7100000000000000000000000000000000000000000000000000000000600052602160045260246000fd5b021790555060208201518160000160016101000a81548160ff0219169083600281111562000614577f4e487b7100000000000000000000000000000000000000000000000000000000600052602160045260246000fd5b02179055506040820151816001015560608201518160020160006101000a81548173ffffffffffffffffffffffffffffffffffffffff021916908373ffffffffffffffffffffffffffffffffffffffff1602179055505050612efd806200067c6000396000f3fe6080604052600436106100e85760003560e01c80638f32d59b1161008a578063ed88c68e11610059578063ed88c68e146102aa578063eed7c128146102b4578063f3b15318146102cb578063f851a440146102f6576100e8565b80638f32d59b14610221578063a2dd6bfc1461024c578063d99d34ee14610277578063db618f8514610293576100e8565b80633af7c206116100c65780633af7c206146101625780633ea26384146101a05780633ff1e05b146101cb5780638da5cb5b146101f6576100e8565b8063013cf08b146100ed5780630a01bda21461012d5780631aa3a00814610158575b600080fd5b3480156100f957600080fd5b50610114600480360381019061010f91906124c0565b610321565b60405161012494939291906129ba565b60405180910390f35b34801561013957600080fd5b5061014261039b565b60405161014f919061299f565b60405180910390f35b6101606104a7565b005b34801561016e57600080fd5b50610189600480360381019061018491906124c0565b6106c3565b60405161019792919061295b565b60405180910390f35b3480156101ac57600080fd5b506101b56107b1565b6040516101c29190612984565b60405180910390f35b3480156101d757600080fd5b506101e06107c4565b6040516101ed9190612bdf565b60405180910390f35b34801561020257600080fd5b5061020b6107cc565b6040516102189190612940565b60405180910390f35b34801561022d57600080fd5b506102366107f5565b6040516102439190612984565b60405180910390f35b34801561025857600080fd5b5061026161084c565b60405161026e9190612bdf565b60405180910390f35b610291600480360381019061028c91906124c0565b6108c1565b005b34801561029f57600080fd5b506102a8610fb0565b005b6102b2611bc2565b005b3480156102c057600080fd5b506102c9611cd8565b005b3480156102d757600080fd5b506102e0612256565b6040516102ed9190612bdf565b60405180910390f35b34801561030257600080fd5b5061030b612355565b6040516103189190612940565b60405180910390f35b6008818154811061033157600080fd5b90600052602060002090600302016000915090508060000160009054906101000a900460ff16908060000160019054906101000a900460ff16908060010154908060020160009054906101000a900473ffffffffffffffffffffffffffffffffffffffff16905084565b60008060098054905014156103e5576040517f08c379a00000000000000000000000000000000000000000000000000000000081526004016103dc90612b3f565b60405180910390fd5b600360149054906101000a900460ff1615610435576040517f08c379a000000000000000000000000000000000000000000000000000000000815260040161042c90612a9f565b60405180910390fd5b600960016009805490506104499190612cec565b81548110610480577f4e487b7100000000000000000000000000000000000000000000000000000000600052603260045260246000fd5b906000526020600020906004020160000160000160019054906101000a900460ff16905090565b600360149054906101000a900460ff16156104f7576040517f08c379a00000000000000000000000000000000000000000000000000000000081526004016104ee90612a9f565b60405180910390fd5b60005b6002548110156105bc573373ffffffffffffffffffffffffffffffffffffffff166007600083815260200190815260200160002060000160009054906101000a900473ffffffffffffffffffffffffffffffffffffffff1673ffffffffffffffffffffffffffffffffffffffff1614156105a9576040517f08c379a00000000000000000000000000000000000000000000000000000000081526004016105a090612a7f565b60405180910390fd5b80806105b490612db2565b9150506104fa565b50633b9aca003410156105ce57600080fd5b3360076000600254815260200190815260200160002060000160006101000a81548173ffffffffffffffffffffffffffffffffffffffff021916908373ffffffffffffffffffffffffffffffffffffffff1602179055503460076000600254815260200190815260200160002060010181905550600360076000600254815260200190815260200160002060020160006101000a81548160ff021916908360038111156106a4577f4e487b7100000000000000000000000000000000000000000000000000000000600052602160045260246000fd5b0217905550600260008154809291906106bc90612db2565b9190505550565b600080600360149054906101000a900460ff1615610716576040517f08c379a000000000000000000000000000000000000000000000000000000000815260040161070d90612a9f565b60405180910390fd5b600254831061075a576040517f08c379a000000000000000000000000000000000000000000000000000000000815260040161075190612adf565b60405180910390fd5b6007600084815260200190815260200160002060000160009054906101000a900473ffffffffffffffffffffffffffffffffffffffff16600760008581526020019081526020016000206001015491509150915091565b600360159054906101000a900460ff1681565b600047905090565b60008060009054906101000a900473ffffffffffffffffffffffffffffffffffffffff16905090565b60008060009054906101000a900473ffffffffffffffffffffffffffffffffffffffff1673ffffffffffffffffffffffffffffffffffffffff163373ffffffffffffffffffffffffffffffffffffffff1614905090565b6000600360149054906101000a900460ff161561089e576040517f08c379a000000000000000000000000000000000000000000000000000000000815260040161089590612a9f565b60405180910390fd5b600760006108aa61237b565b815260200190815260200160002060010154905090565b600360149054906101000a900460ff1615610911576040517f08c379a000000000000000000000000000000000000000000000000000000000815260040161090890612a9f565b60405180910390fd5b3373ffffffffffffffffffffffffffffffffffffffff166007600061093461237b565b815260200190815260200160002060000160009054906101000a900473ffffffffffffffffffffffffffffffffffffffff1673ffffffffffffffffffffffffffffffffffffffff161461098657600080fd5b633b9aca003410156109cd576040517f08c379a00000000000000000000000000000000000000000000000000000000081526004016109c490612a5f565b60405180910390fd5b6008805490508110610a14576040517f08c379a0000000000000000000000000000000000000000000000000000000008152600401610a0b90612b5f565b60405180910390fd5b600060098054905014610b4157600280811115610a5a577f4e487b7100000000000000000000000000000000000000000000000000000000600052602160045260246000fd5b60096001600980549050610a6e9190612cec565b81548110610aa5577f4e487b7100000000000000000000000000000000000000000000000000000000600052603260045260246000fd5b906000526020600020906004020160000160000160019054906101000a900460ff166002811115610aff577f4e487b7100000000000000000000000000000000000000000000000000000000600052602160045260246000fd5b1415610b40576040517f08c379a0000000000000000000000000000000000000000000000000000000008152600401610b3790612b7f565b60405180910390fd5b5b6009604051806040016040528060088481548110610b88577f4e487b7100000000000000000000000000000000000000000000000000000000600052603260045260246000fd5b90600052602060002090600302016040518060800160405290816000820160009054906101000a900460ff166002811115610bec577f4e487b7100000000000000000000000000000000000000000000000000000000600052602160045260246000fd5b6002811115610c24577f4e487b7100000000000000000000000000000000000000000000000000000000600052602160045260246000fd5b81526020016000820160019054906101000a900460ff166002811115610c73577f4e487b7100000000000000000000000000000000000000000000000000000000600052602160045260246000fd5b6002811115610cab577f4e487b7100000000000000000000000000000000000000000000000000000000600052602160045260246000fd5b8152602001600182015481526020016002820160009054906101000a900473ffffffffffffffffffffffffffffffffffffffff1673ffffffffffffffffffffffffffffffffffffffff1673ffffffffffffffffffffffffffffffffffffffff1681525050815260200143815250908060018154018082558091505060019003906000526020600020906004020160009091909190915060008201518160000160008201518160000160006101000a81548160ff02191690836002811115610d9b577f4e487b7100000000000000000000000000000000000000000000000000000000600052602160045260246000fd5b021790555060208201518160000160016101000a81548160ff02191690836002811115610df1577f4e487b7100000000000000000000000000000000000000000000000000000000600052602160045260246000fd5b02179055506040820151816001015560608201518160020160006101000a81548173ffffffffffffffffffffffffffffffffffffffff021916908373ffffffffffffffffffffffffffffffffffffffff16021790555050506020820151816003015550503360096001600980549050610e6a9190612cec565b81548110610ea1577f4e487b7100000000000000000000000000000000000000000000000000000000600052603260045260246000fd5b906000526020600020906004020160000160020160006101000a81548173ffffffffffffffffffffffffffffffffffffffff021916908373ffffffffffffffffffffffffffffffffffffffff16021790555060005b600254811015610f785760026007600083815260200190815260200160002060020160006101000a81548160ff02191690836003811115610f60577f4e487b7100000000000000000000000000000000000000000000000000000000600052602160045260246000fd5b02179055508080610f7090612db2565b915050610ef6565b503460076000610f8661237b565b81526020019081526020016000206001016000828254610fa69190612c0b565b9250508190555050565b60006009805490501415610ff9576040517f08c379a0000000000000000000000000000000000000000000000000000000008152600401610ff090612b3f565b60405180910390fd5b600360149054906101000a900460ff1615611049576040517f08c379a000000000000000000000000000000000000000000000000000000000815260040161104090612a9f565b60405180910390fd5b600280811115611082577f4e487b7100000000000000000000000000000000000000000000000000000000600052602160045260246000fd5b600960016009805490506110969190612cec565b815481106110cd577f4e487b7100000000000000000000000000000000000000000000000000000000600052603260045260246000fd5b906000526020600020906004020160000160000160019054906101000a900460ff166002811115611127577f4e487b7100000000000000000000000000000000000000000000000000000000600052602160045260246000fd5b14611167576040517f08c379a000000000000000000000000000000000000000000000000000000000815260040161115e90612a1f565b60405180910390fd5b600a6009600160098054905061117d9190612cec565b815481106111b4577f4e487b7100000000000000000000000000000000000000000000000000000000600052603260045260246000fd5b906000526020600020906004020160030154436111d19190612cec565b11611211576040517f08c379a000000000000000000000000000000000000000000000000000000000815260040161120890612abf565b60405180910390fd5b6000600960016009805490506112279190612cec565b8154811061125e577f4e487b7100000000000000000000000000000000000000000000000000000000600052603260045260246000fd5b90600052602060002090600402016000016001015490506000816002546112859190612cec565b821115611295576001905061140d565b816002546112a39190612cec565b82101561135d576001600960016009805490506112c09190612cec565b815481106112f7577f4e487b7100000000000000000000000000000000000000000000000000000000600052603260045260246000fd5b906000526020600020906004020160000160000160016101000a81548160ff02191690836002811115611353577f4e487b7100000000000000000000000000000000000000000000000000000000600052602160045260246000fd5b021790555061140c565b6001600960016009805490506113739190612cec565b815481106113aa577f4e487b7100000000000000000000000000000000000000000000000000000000600052603260045260246000fd5b906000526020600020906004020160000160000160016101000a81548160ff02191690836002811115611406577f4e487b7100000000000000000000000000000000000000000000000000000000600052602160045260246000fd5b02179055505b5b8015611bbe576001600281111561144d577f4e487b7100000000000000000000000000000000000000000000000000000000600052602160045260246000fd5b600960016009805490506114619190612cec565b81548110611498577f4e487b7100000000000000000000000000000000000000000000000000000000600052603260045260246000fd5b906000526020600020906004020160000160000160009054906101000a900460ff1660028111156114f2577f4e487b7100000000000000000000000000000000000000000000000000000000600052602160045260246000fd5b141561166f576001600a60006101000a81548160ff02191690831515021790555061151b611bc2565b6000600a60006101000a81548160ff02191690831515021790555060005b6002548110156116695760036007600083815260200190815260200160002060020160006101000a81548160ff021916908360038111156115a3577f4e487b7100000000000000000000000000000000000000000000000000000000600052602160045260246000fd5b02179055506000600960016009805490506115be9190612cec565b815481106115f5577f4e487b7100000000000000000000000000000000000000000000000000000000600052603260045260246000fd5b906000526020600020906004020160000160000160016101000a81548160ff02191690836002811115611651577f4e487b7100000000000000000000000000000000000000000000000000000000600052602160045260246000fd5b0217905550808061166190612db2565b915050611539565b50611bbd565b600060028111156116a9577f4e487b7100000000000000000000000000000000000000000000000000000000600052602160045260246000fd5b600960016009805490506116bd9190612cec565b815481106116f4577f4e487b7100000000000000000000000000000000000000000000000000000000600052603260045260246000fd5b906000526020600020906004020160000160000160009054906101000a900460ff16600281111561174e577f4e487b7100000000000000000000000000000000000000000000000000000000600052602160045260246000fd5b1415611956576001600360156101000a81548160ff0219169083151502179055506000600960016009805490506117859190612cec565b815481106117bc577f4e487b7100000000000000000000000000000000000000000000000000000000600052603260045260246000fd5b906000526020600020906004020160000160000160016101000a81548160ff02191690836002811115611818577f4e487b7100000000000000000000000000000000000000000000000000000000600052602160045260246000fd5b021790555060005b6002548110156119505760036007600083815260200190815260200160002060020160006101000a81548160ff0219169083600381111561188a577f4e487b7100000000000000000000000000000000000000000000000000000000600052602160045260246000fd5b02179055506000600960016009805490506118a59190612cec565b815481106118dc577f4e487b7100000000000000000000000000000000000000000000000000000000600052603260045260246000fd5b906000526020600020906004020160000160000160016101000a81548160ff02191690836002811115611938577f4e487b7100000000000000000000000000000000000000000000000000000000600052602160045260246000fd5b0217905550808061194890612db2565b915050611820565b50611bbc565b60003a90506000600160025461196c9190612c0b565b826119779190612c92565b600254476119859190612c61565b61198f9190612cec565b905060005b600254811015611a2e576007600082815260200190815260200160002060000160009054906101000a900473ffffffffffffffffffffffffffffffffffffffff1673ffffffffffffffffffffffffffffffffffffffff166108fc839081150290604051600060405180830381858888f19350505050158015611a1a573d6000803e3d6000fd5b508080611a2690612db2565b915050611994565b5060005b600254811015611aa55760006007600083815260200190815260200160002060000160006101000a81548173ffffffffffffffffffffffffffffffffffffffff021916908373ffffffffffffffffffffffffffffffffffffffff1602179055508080611a9d90612db2565b915050611a32565b50600060096001600980549050611abc9190612cec565b81548110611af3577f4e487b7100000000000000000000000000000000000000000000000000000000600052603260045260246000fd5b906000526020600020906004020160000160000160016101000a81548160ff02191690836002811115611b4f577f4e487b7100000000000000000000000000000000000000000000000000000000600052602160045260246000fd5b021790555060006002819055506000600160006101000a81548173ffffffffffffffffffffffffffffffffffffffff021916908373ffffffffffffffffffffffffffffffffffffffff1602179055506001600360146101000a81548160ff02191690831515021790555050505b5b5b5050565b600360149054906101000a900460ff1615611c12576040517f08c379a0000000000000000000000000000000000000000000000000000000008152600401611c0990612a9f565b60405180910390fd5b600a60009054906101000a900460ff16611c61576040517f08c379a0000000000000000000000000000000000000000000000000000000008152600401611c5890612bbf565b60405180910390fd5b600360009054906101000a900473ffffffffffffffffffffffffffffffffffffffff1673ffffffffffffffffffffffffffffffffffffffff166108fc600a47611caa9190612c61565b9081150290604051600060405180830381858888f19350505050158015611cd5573d6000803e3d6000fd5b50565b600360149054906101000a900460ff1615611d28576040517f08c379a0000000000000000000000000000000000000000000000000000000008152600401611d1f90612a9f565b60405180910390fd5b6000805b600254811015611db8576007600082815260200190815260200160002060000160009054906101000a900473ffffffffffffffffffffffffffffffffffffffff1673ffffffffffffffffffffffffffffffffffffffff163373ffffffffffffffffffffffffffffffffffffffff161415611da557600191505b8080611db090612db2565b915050611d2c565b506001151581151514611e00576040517f08c379a0000000000000000000000000000000000000000000000000000000008152600401611df790612a3f565b60405180910390fd5b60006009805490501415611e49576040517f08c379a0000000000000000000000000000000000000000000000000000000008152600401611e4090612b3f565b60405180910390fd5b600360149054906101000a900460ff1615611e99576040517f08c379a0000000000000000000000000000000000000000000000000000000008152600401611e9090612a9f565b60405180910390fd5b60006003811115611ed3577f4e487b7100000000000000000000000000000000000000000000000000000000600052602160045260246000fd5b60076000611edf61237b565b815260200190815260200160002060020160009054906101000a900460ff166003811115611f36577f4e487b7100000000000000000000000000000000000000000000000000000000600052602160045260246000fd5b1415611f77576040517f08c379a0000000000000000000000000000000000000000000000000000000008152600401611f6e90612b1f565b60405180910390fd5b60026003811115611fb1577f4e487b7100000000000000000000000000000000000000000000000000000000600052602160045260246000fd5b60076000611fbd61237b565b815260200190815260200160002060020160009054906101000a900460ff166003811115612014577f4e487b7100000000000000000000000000000000000000000000000000000000600052602160045260246000fd5b14612054576040517f08c379a000000000000000000000000000000000000000000000000000000000815260040161204b90612b9f565b60405180910390fd5b60028081111561208d577f4e487b7100000000000000000000000000000000000000000000000000000000600052602160045260246000fd5b600960016009805490506120a19190612cec565b815481106120d8577f4e487b7100000000000000000000000000000000000000000000000000000000600052603260045260246000fd5b906000526020600020906004020160000160000160019054906101000a900460ff166002811115612132577f4e487b7100000000000000000000000000000000000000000000000000000000600052602160045260246000fd5b14612172576040517f08c379a0000000000000000000000000000000000000000000000000000000008152600401612169906129ff565b60405180910390fd5b600960016009805490506121869190612cec565b815481106121bd577f4e487b7100000000000000000000000000000000000000000000000000000000600052603260045260246000fd5b906000526020600020906004020160000160010160008154809291906121e290612db2565b91905055506000600760006121f561237b565b815260200190815260200160002060020160006101000a81548160ff0219169083600381111561224e577f4e487b7100000000000000000000000000000000000000000000000000000000600052602160045260246000fd5b021790555050565b60008060098054905014156122a0576040517f08c379a000000000000000000000000000000000000000000000000000000000815260040161229790612b3f565b60405180910390fd5b600360149054906101000a900460ff16156122f0576040517f08c379a00000000000000000000000000000000000000000000000000000000081526004016122e790612a9f565b60405180910390fd5b600960016009805490506123049190612cec565b8154811061233b577f4e487b7100000000000000000000000000000000000000000000000000000000600052603260045260246000fd5b906000526020600020906004020160000160010154905090565b600160009054906101000a900473ffffffffffffffffffffffffffffffffffffffff1681565b6000600360149054906101000a900460ff16156123cd576040517f08c379a00000000000000000000000000000000000000000000000000000000081526004016123c490612a9f565b60405180910390fd5b60008060005b600254811015612462573373ffffffffffffffffffffffffffffffffffffffff166007600083815260200190815260200160002060000160009054906101000a900473ffffffffffffffffffffffffffffffffffffffff1673ffffffffffffffffffffffffffffffffffffffff16141561244f57809250600191505b808061245a90612db2565b9150506123d3565b50806124a3576040517f08c379a000000000000000000000000000000000000000000000000000000000815260040161249a90612aff565b60405180910390fd5b819250505090565b6000813590506124ba81612eb0565b92915050565b6000602082840312156124d257600080fd5b60006124e0848285016124ab565b91505092915050565b6124f281612d20565b82525050565b61250181612d32565b82525050565b61251081612d8e565b82525050565b61251f81612da0565b82525050565b6000612532601e83612bfa565b91507f4e6f206e6577207375626d697373696f6e7320746f20766f746520666f7200006000830152602082019050919050565b6000612572602483612bfa565b91507f4e6f20616374697665207375626d697373696f6e7320746f2066696e6420726560008301527f73756c74000000000000000000000000000000000000000000000000000000006020830152604082019050919050565b60006125d8601983612bfa565b91507f4f6e6c7920616363657369626c6520746f206d656d62657273000000000000006000830152602082019050919050565b6000612618602683612bfa565b91507f4e6f7420656e6f7567682065746820746f207375626d6974207468697320707260008301527f6f706f73616c00000000000000000000000000000000000000000000000000006020830152604082019050919050565b600061267e601683612bfa565b91507f4d656d62657220616c72656164792065786973742021000000000000000000006000830152602082019050919050565b60006126be601283612bfa565b91507f436f6e74726163742064657374726f79656400000000000000000000000000006000830152602082019050919050565b60006126fe601483612bfa565b91507f54696d65207374696c6c2072656d61696e696e670000000000000000000000006000830152602082019050919050565b600061273e601483612bfa565b91507f4d656d62657220646f65736e27742065786973740000000000000000000000006000830152602082019050919050565b600061277e601683612bfa565b91507f4d656d62657220646f65736e27742065786973742021000000000000000000006000830152602082019050919050565b60006127be600f83612bfa565b91507f416c726561647920766f746564202100000000000000000000000000000000006000830152602082019050919050565b60006127fe601583612bfa565b91507f5375626d697373696f6e73206e6f7420666f756e6400000000000000000000006000830152602082019050919050565b600061283e601183612bfa565b91507f4e6f2070726f706f73616c20666f756e640000000000000000000000000000006000830152602082019050919050565b600061287e601b83612bfa565b91507f50726576696f7573207375626d697373696f6e2070656e64696e6700000000006000830152602082019050919050565b60006128be601c83612bfa565b91507f566f74696e672073657373696f6e20646f65736e2774206578697374000000006000830152602082019050919050565b60006128fe601383612bfa565b91507f5065726d697373696f6e2064656e6965642021000000000000000000000000006000830152602082019050919050565b61293a81612d84565b82525050565b600060208201905061295560008301846124e9565b92915050565b600060408201905061297060008301856124e9565b61297d6020830184612931565b9392505050565b600060208201905061299960008301846124f8565b92915050565b60006020820190506129b46000830184612507565b92915050565b60006080820190506129cf6000830187612516565b6129dc6020830186612507565b6129e96040830185612931565b6129f660608301846124e9565b95945050505050565b60006020820190508181036000830152612a1881612525565b9050919050565b60006020820190508181036000830152612a3881612565565b9050919050565b60006020820190508181036000830152612a58816125cb565b9050919050565b60006020820190508181036000830152612a788161260b565b9050919050565b60006020820190508181036000830152612a9881612671565b9050919050565b60006020820190508181036000830152612ab8816126b1565b9050919050565b60006020820190508181036000830152612ad8816126f1565b9050919050565b60006020820190508181036000830152612af881612731565b9050919050565b60006020820190508181036000830152612b1881612771565b9050919050565b60006020820190508181036000830152612b38816127b1565b9050919050565b60006020820190508181036000830152612b58816127f1565b9050919050565b60006020820190508181036000830152612b7881612831565b9050919050565b60006020820190508181036000830152612b9881612871565b9050919050565b60006020820190508181036000830152612bb8816128b1565b9050919050565b60006020820190508181036000830152612bd8816128f1565b9050919050565b6000602082019050612bf46000830184612931565b92915050565b600082825260208201905092915050565b6000612c1682612d84565b9150612c2183612d84565b9250827fffffffffffffffffffffffffffffffffffffffffffffffffffffffffffffffff03821115612c5657612c55612dfb565b5b828201905092915050565b6000612c6c82612d84565b9150612c7783612d84565b925082612c8757612c86612e2a565b5b828204905092915050565b6000612c9d82612d84565b9150612ca883612d84565b9250817fffffffffffffffffffffffffffffffffffffffffffffffffffffffffffffffff0483118215151615612ce157612ce0612dfb565b5b828202905092915050565b6000612cf782612d84565b9150612d0283612d84565b925082821015612d1557612d14612dfb565b5b828203905092915050565b6000612d2b82612d64565b9050919050565b60008115159050919050565b6000819050612d4c82612e88565b919050565b6000819050612d5f82612e9c565b919050565b600073ffffffffffffffffffffffffffffffffffffffff82169050919050565b6000819050919050565b6000612d9982612d3e565b9050919050565b6000612dab82612d51565b9050919050565b6000612dbd82612d84565b91507fffffffffffffffffffffffffffffffffffffffffffffffffffffffffffffffff821415612df057612def612dfb565b5b600182019050919050565b7f4e487b7100000000000000000000000000000000000000000000000000000000600052601160045260246000fd5b7f4e487b7100000000000000000000000000000000000000000000000000000000600052601260045260246000fd5b7f4e487b7100000000000000000000000000000000000000000000000000000000600052602160045260246000fd5b60038110612e9957612e98612e59565b5b50565b60038110612ead57612eac612e59565b5b50565b612eb981612d84565b8114612ec457600080fd5b5056fea26469706673582212209537336a444cff9128c7ed147168e4d1d7f4736b569884247aff624b78206ce164736f6c63430008000033",
  "immutableReferences": {},
  "source": "// SPDX-License-Identifier: MIT\r\npragma solidity ^0.8.0;\r\n\r\nimport \"./ownable.sol\";\r\n\r\ncontract Mydao is Ownable {\r\n    //Address of admin\r\n\r\n    address public admin;\r\n    uint256 memberCount;\r\n    address charity = 0xE4a93C164F1C194dFB58C513D302e7d912e8915f;\r\n    bool destroyed;\r\n    bool public newAdmin;\r\n\r\n    enum proposalNames {\r\n        adminChange,\r\n        donate,\r\n        destroy\r\n    }\r\n\r\n    constructor() {\r\n        \r\n        admin = msg.sender;\r\n        proposals.push(\r\n            Proposal(\r\n                proposalNames.adminChange,\r\n                ProposalStatus.pending,\r\n                0,\r\n                msg.sender\r\n            )\r\n        );\r\n        proposals.push(\r\n            Proposal(\r\n                proposalNames.donate,\r\n                ProposalStatus.pending,\r\n                0,\r\n                msg.sender\r\n            )\r\n        );\r\n        proposals.push(\r\n            Proposal(\r\n                proposalNames.destroy,\r\n                ProposalStatus.pending,\r\n                0,\r\n                msg.sender\r\n            )\r\n        );\r\n    }\r\n\r\n    \r\n\r\n    //Member details\r\n\r\n    enum VoteStatus {\r\n        voted,\r\n        not_voted,\r\n        active,\r\n        inactive\r\n    }\r\n\r\n    struct Member {\r\n        address memberAddress;\r\n        uint256 contributions;\r\n        VoteStatus voteStatus;\r\n    }\r\n\r\n    Member member;\r\n\r\n    mapping(uint256 => Member) memberDetails;\r\n\r\n    //Registration fees 1 eth\r\n\r\n    function register() public payable {\r\n        require(!destroyed, \"Contract destroyed\");\r\n        for (uint256 i = 0; i < memberCount; i++) {\r\n            if (memberDetails[i].memberAddress == msg.sender) {\r\n                revert(\"Member already exist !\");\r\n            }\r\n        }\r\n        require(msg.value >= 1e9);\r\n        memberDetails[memberCount].memberAddress = msg.sender;\r\n        memberDetails[memberCount].contributions = msg.value;\r\n        memberDetails[memberCount].voteStatus = VoteStatus.inactive;\r\n        memberCount++;\r\n    }\r\n\r\n    //View contributions\r\n\r\n    function myContribution() public view returns (uint256) {\r\n        require(!destroyed, \"Contract destroyed\");\r\n        return memberDetails[findMemberId()].contributions;\r\n    }\r\n\r\n    //View members\r\n\r\n    function viewMembers(uint256 _id) public view returns (address, uint256) {\r\n        require(!destroyed, \"Contract destroyed\");\r\n\r\n        require(_id < memberCount, \"Member doesn't exist\");\r\n        return (\r\n            memberDetails[_id].memberAddress,\r\n            memberDetails[_id].contributions\r\n        );\r\n    }\r\n\r\n    //Find memberId\r\n\r\n    function findMemberId() internal view returns (uint256) {\r\n        require(!destroyed, \"Contract destroyed\");\r\n\r\n        uint256 id;\r\n        bool found;\r\n\r\n        for (uint256 i = 0; i < memberCount; i++) {\r\n            if (memberDetails[i].memberAddress == msg.sender) {\r\n                id = i;\r\n                found = true;\r\n            }\r\n        }\r\n        require(found, \"Member doesn't exist !\");\r\n        return id;\r\n    }\r\n\r\n    //Proposals\r\n\r\n    enum ProposalStatus {\r\n        accepted,\r\n        rejected,\r\n        pending\r\n    }\r\n\r\n    struct Proposal {\r\n        proposalNames proposalName;\r\n        ProposalStatus proposalStatus;\r\n        uint256 votesReceived;\r\n        address ProposalsubmitedBy;\r\n    }\r\n\r\n    struct ProposalSubmission {\r\n        Proposal proposalStruct;\r\n        uint256 blockNumber;\r\n    }\r\n\r\n    Proposal[] public proposals;\r\n\r\n    ProposalSubmission[] internal submittedProposals;\r\n\r\n    //Submitting proposal\r\n\r\n    function newSubmission(uint256 _proposalId) public payable {\r\n        require(!destroyed, \"Contract destroyed\");\r\n\r\n        require(memberDetails[findMemberId()].memberAddress == msg.sender);\r\n        require(msg.value >= 1e9, \"Not enough eth to submit this proposal\");\r\n        require(_proposalId < proposals.length, \"No proposal found\");\r\n        if (submittedProposals.length != 0) {\r\n            require(\r\n                submittedProposals[submittedProposals.length - 1]\r\n                    .proposalStruct\r\n                    .proposalStatus != ProposalStatus.pending,\r\n                \"Previous submission pending\"\r\n            );\r\n        }\r\n        submittedProposals.push(\r\n            ProposalSubmission(proposals[_proposalId], block.number)\r\n        );\r\n        submittedProposals[submittedProposals.length - 1]\r\n            .proposalStruct\r\n            .ProposalsubmitedBy = msg.sender;\r\n\r\n        for (uint256 i = 0; i < memberCount; i++) {\r\n            memberDetails[i].voteStatus = VoteStatus.active;\r\n        }\r\n\r\n        memberDetails[findMemberId()].contributions += msg.value;\r\n    }\r\n\r\n    //verify member\r\n\r\n    modifier verifyMember() {\r\n        require(!destroyed, \"Contract destroyed\");\r\n        bool temp;\r\n\r\n        for (uint256 i; i < memberCount; i++) {\r\n            if (msg.sender == memberDetails[i].memberAddress) {\r\n                temp = true;\r\n            }\r\n        }\r\n\r\n        require(temp == true, \"Only accesible to members\");\r\n        _;\r\n    }\r\n\r\n    modifier submissionStatus() {\r\n        require(submittedProposals.length != 0, \"Submissions not found\");\r\n        _;\r\n    }\r\n\r\n    //Submissions status\r\n\r\n    function viewSubmissionStatus()\r\n        public\r\n        view\r\n        submissionStatus\r\n        returns (ProposalStatus)\r\n    {\r\n        require(!destroyed, \"Contract destroyed\");\r\n\r\n        return\r\n            submittedProposals[submittedProposals.length - 1]\r\n                .proposalStruct\r\n                .proposalStatus;\r\n    }\r\n\r\n    //Submission votes\r\n\r\n    function viewSubmissionVotes()\r\n        public\r\n        view\r\n        submissionStatus\r\n        returns (uint256)\r\n    {\r\n        require(!destroyed, \"Contract destroyed\");\r\n\r\n        return\r\n            submittedProposals[submittedProposals.length - 1]\r\n                .proposalStruct\r\n                .votesReceived;\r\n    }\r\n\r\n    //vote\r\n\r\n    function upVote() public verifyMember submissionStatus {\r\n        require(!destroyed, \"Contract destroyed\");\r\n\r\n        if (memberDetails[findMemberId()].voteStatus == VoteStatus.voted) {\r\n            revert(\"Already voted !\");\r\n        }\r\n        require(\r\n            memberDetails[findMemberId()].voteStatus == VoteStatus.active,\r\n            \"Voting session doesn't exist\"\r\n        );\r\n        require(\r\n            submittedProposals[submittedProposals.length - 1]\r\n                .proposalStruct\r\n                .proposalStatus == ProposalStatus.pending,\r\n            \"No new submissions to vote for\"\r\n        );\r\n        submittedProposals[submittedProposals.length - 1]\r\n            .proposalStruct\r\n            .votesReceived++;\r\n        memberDetails[findMemberId()].voteStatus = VoteStatus.voted;\r\n    }\r\n\r\n    //View contract balance\r\n\r\n    function viewBalance() public view returns(uint){\r\n\r\n        return address(this).balance;\r\n    }\r\n\r\n    //Donate function\r\n\r\n    bool donateStatus;\r\n\r\n    function donate() public payable {\r\n        require(!destroyed, \"Contract destroyed\");\r\n\r\n        require(donateStatus, \"Permission denied !\");\r\n        payable(charity).transfer(address(this).balance / 10);\r\n    }\r\n\r\n    //Result and execution\r\n    function findResult() public submissionStatus {\r\n        require(!destroyed, \"Contract destroyed\");\r\n\r\n        require(\r\n            submittedProposals[submittedProposals.length - 1]\r\n                .proposalStruct\r\n                .proposalStatus == ProposalStatus.pending,\r\n            \"No active submissions to find result\"\r\n        );\r\n        require(\r\n            block.number -\r\n                submittedProposals[submittedProposals.length - 1].blockNumber >\r\n                10,\r\n            \"Time still remaining\"\r\n        );\r\n\r\n        uint256 votes_received = submittedProposals[\r\n            submittedProposals.length - 1\r\n        ].proposalStruct.votesReceived;\r\n        bool Submission_accepted;\r\n        if (votes_received > (memberCount - votes_received)) {\r\n            Submission_accepted = true;\r\n        } else if (votes_received < (memberCount - votes_received)) {\r\n            submittedProposals[submittedProposals.length - 1]\r\n                .proposalStruct\r\n                .proposalStatus = ProposalStatus.rejected;\r\n        } else {\r\n            submittedProposals[submittedProposals.length - 1]\r\n                .proposalStruct\r\n                .proposalStatus = ProposalStatus.rejected;\r\n        }\r\n\r\n        if (Submission_accepted) {\r\n            if (\r\n                submittedProposals[submittedProposals.length - 1]\r\n                    .proposalStruct\r\n                    .proposalName == proposalNames.donate\r\n            ) {\r\n                donateStatus = true;\r\n                donate();\r\n                donateStatus = false;\r\n\r\n                for (uint256 i = 0; i < memberCount; i++) {\r\n                    memberDetails[i].voteStatus = VoteStatus.inactive;\r\n                    submittedProposals[submittedProposals.length - 1]\r\n                        .proposalStruct\r\n                        .proposalStatus = ProposalStatus.accepted;\r\n                }\r\n            } else if (\r\n                submittedProposals[submittedProposals.length - 1]\r\n                    .proposalStruct\r\n                    .proposalName == proposalNames.adminChange\r\n            ) {\r\n                newAdmin = true;\r\n                submittedProposals[submittedProposals.length - 1]\r\n                    .proposalStruct\r\n                    .proposalStatus = ProposalStatus.accepted;\r\n\r\n                for (uint256 i = 0; i < memberCount; i++) {\r\n                    memberDetails[i].voteStatus = VoteStatus.inactive;\r\n                    submittedProposals[submittedProposals.length - 1]\r\n                        .proposalStruct\r\n                        .proposalStatus = ProposalStatus.accepted;\r\n                }\r\n            } else {\r\n                uint256 Gas = tx.gasprice;\r\n                uint256 dividentAmt = address(this).balance /\r\n                    memberCount -\r\n                    (Gas * (memberCount + 1));\r\n\r\n                // Distributing remaining balances among members\r\n\r\n                for (uint256 i = 0; i < memberCount; i++) {\r\n                    payable(memberDetails[i].memberAddress).transfer(\r\n                        dividentAmt\r\n                    );\r\n                }\r\n\r\n                //Removing members\r\n\r\n                for (uint256 i = 0; i < memberCount; i++) {\r\n                    memberDetails[i].memberAddress = address(0);\r\n                }\r\n                submittedProposals[submittedProposals.length - 1]\r\n                    .proposalStruct\r\n                    .proposalStatus = ProposalStatus.accepted;\r\n\r\n                memberCount = 0;\r\n                admin = address(0);\r\n                destroyed = true;\r\n            }\r\n        }\r\n    }\r\n}\r\n",
  "sourcePath": "C:\\Users\\manfa\\Desktop\\remix-backup-at-14h31min-2022-10-26\\.workspaces\\week17\\week 17\\contracts\\myDao.sol",
  "compiler": {
    "name": "solc",
    "version": "0.8.0+commit.c7dfd78e.Emscripten.clang"
  },
  "schemaVersion": "3.4.10",
  "updatedAt": "2022-11-03T05:48:20.500Z",
  "devdoc": {
    "kind": "dev",
    "methods": {},
    "version": 1
  },
  "userdoc": {
    "kind": "user",
    "methods": {},
    "version": 1
  }
}