{
  "contractName": "Ownable",
  "abi": [
    {
      "inputs": [],
      "stateMutability": "nonpayable",
      "type": "constructor"
    },
    {
      "inputs": [],
      "name": "owner",
      "outputs": [
        {
          "internalType": "address",
          "name": "",
          "type": "address"
        }
      ],
      "stateMutability": "view",
      "type": "function"
    },
    {
      "inputs": [],
      "name": "isOwner",
      "outputs": [
        {
          "internalType": "bool",
          "name": "",
          "type": "bool"
        }
      ],
      "stateMutability": "view",
      "type": "function"
    }
  ],
  "bytecode": "0x608060405234801561001057600080fd5b50336000806101000a81548173ffffffffffffffffffffffffffffffffffffffff021916908373ffffffffffffffffffffffffffffffffffffffff1602179055506101bf806100606000396000f3fe608060405234801561001057600080fd5b50600436106100365760003560e01c80638da5cb5b1461003b5780638f32d59b14610059575b600080fd5b610043610077565b6040516100509190610115565b60405180910390f35b6100616100a0565b60405161006e9190610130565b60405180910390f35b60008060009054906101000a900473ffffffffffffffffffffffffffffffffffffffff16905090565b60008060009054906101000a900473ffffffffffffffffffffffffffffffffffffffff1673ffffffffffffffffffffffffffffffffffffffff163373ffffffffffffffffffffffffffffffffffffffff1614905090565b6101008161014b565b82525050565b61010f8161015d565b82525050565b600060208201905061012a60008301846100f7565b92915050565b60006020820190506101456000830184610106565b92915050565b600061015682610169565b9050919050565b60008115159050919050565b600073ffffffffffffffffffffffffffffffffffffffff8216905091905056fea2646970667358221220906d766beefa9b1ddd8262cf22bd38a3494244512bfa02348f2e7e3a8fbd74c664736f6c63430008000033",
  "immutableReferences": {},
  "source": "\r\n// SPDX-License-Identifier: MIT\r\npragma solidity >=0.8.0; \r\n\r\ncontract Ownable  \r\n{     \r\n  \r\n  address internal _owner; \r\n  \r\n \r\n  constructor() \r\n  { \r\n    _owner = msg.sender; \r\n  } \r\n\r\n  function owner() public view returns(address)  \r\n  { \r\n    return _owner; \r\n  } \r\n  \r\n  \r\n  modifier onlyOwner()  \r\n  { \r\n    require(isOwner(), \r\n    \"Function accessible only by the owner !!\"); \r\n    _; \r\n  } \r\n  \r\n  \r\n  function isOwner() public view returns(bool)  \r\n  { \r\n    return msg.sender == _owner; \r\n  } \r\n} ",
  "sourcePath": "C:\\Users\\manfa\\Desktop\\remix-backup-at-14h31min-2022-10-26\\.workspaces\\week17\\week 17\\contracts\\ownable.sol",
  "compiler": {
    "name": "solc",
    "version": "0.8.0+commit.c7dfd78e.Emscripten.clang"
  },
  "schemaVersion": "3.4.10",
  "updatedAt": "2022-11-03T05:48:20.507Z",
  "devdoc": {
    "kind": "dev",
    "methods": {},
    "version": 1
  },
  "userdoc": {
    "kind": "user",
    "methods": {},
    "version": 1
  }
}