{
  "contractName": "Voting",
  "abi": [
    {
      "inputs": [],
      "name": "admin",
      "outputs": [
        {
          "internalType": "address",
          "name": "",
          "type": "address"
        }
      ],
      "stateMutability": "view",
      "type": "function",
      "constant": true
    },
    {
      "inputs": [],
      "name": "donate",
      "outputs": [],
      "stateMutability": "payable",
      "type": "function",
      "payable": true
    },
    {
      "inputs": [],
      "name": "findResult",
      "outputs": [],
      "stateMutability": "nonpayable",
      "type": "function"
    },
    {
      "inputs": [],
      "name": "isOwner",
      "outputs": [
        {
          "internalType": "bool",
          "name": "",
          "type": "bool"
        }
      ],
      "stateMutability": "view",
      "type": "function",
      "constant": true
    },
    {
      "inputs": [],
      "name": "myContribution",
      "outputs": [
        {
          "internalType": "uint256",
          "name": "",
          "type": "uint256"
        }
      ],
      "stateMutability": "view",
      "type": "function",
      "constant": true
    },
    {
      "inputs": [],
      "name": "newAdmin",
      "outputs": [
        {
          "internalType": "bool",
          "name": "",
          "type": "bool"
        }
      ],
      "stateMutability": "view",
      "type": "function",
      "constant": true
    },
    {
      "inputs": [
        {
          "internalType": "uint256",
          "name": "_proposalId",
          "type": "uint256"
        }
      ],
      "name": "newSubmission",
      "outputs": [],
      "stateMutability": "payable",
      "type": "function",
      "payable": true
    },
    {
      "inputs": [],
      "name": "owner",
      "outputs": [
        {
          "internalType": "address",
          "name": "",
          "type": "address"
        }
      ],
      "stateMutability": "view",
      "type": "function",
      "constant": true
    },
    {
      "inputs": [
        {
          "internalType": "uint256",
          "name": "",
          "type": "uint256"
        }
      ],
      "name": "proposals",
      "outputs": [
        {
          "internalType": "enum Mydao.proposalNames",
          "name": "proposalName",
          "type": "uint8"
        },
        {
          "internalType": "enum Mydao.ProposalStatus",
          "name": "proposalStatus",
          "type": "uint8"
        },
        {
          "internalType": "uint256",
          "name": "votesReceived",
          "type": "uint256"
        },
        {
          "internalType": "address",
          "name": "ProposalsubmitedBy",
          "type": "address"
        }
      ],
      "stateMutability": "view",
      "type": "function",
      "constant": true
    },
    {
      "inputs": [],
      "name": "register",
      "outputs": [],
      "stateMutability": "payable",
      "type": "function",
      "payable": true
    },
    {
      "inputs": [],
      "name": "upVote",
      "outputs": [],
      "stateMutability": "nonpayable",
      "type": "function"
    },
    {
      "inputs": [],
      "name": "viewBalance",
      "outputs": [
        {
          "internalType": "uint256",
          "name": "",
          "type": "uint256"
        }
      ],
      "stateMutability": "view",
      "type": "function",
      "constant": true
    },
    {
      "inputs": [
        {
          "internalType": "uint256",
          "name": "_id",
          "type": "uint256"
        }
      ],
      "name": "viewMembers",
      "outputs": [
        {
          "internalType": "address",
          "name": "",
          "type": "address"
        },
        {
          "internalType": "uint256",
          "name": "",
          "type": "uint256"
        }
      ],
      "stateMutability": "view",
      "type": "function",
      "constant": true
    },
    {
      "inputs": [],
      "name": "viewSubmissionStatus",
      "outputs": [
        {
          "internalType": "enum Mydao.ProposalStatus",
          "name": "",
          "type": "uint8"
        }
      ],
      "stateMutability": "view",
      "type": "function",
      "constant": true
    },
    {
      "inputs": [],
      "name": "viewSubmissionVotes",
      "outputs": [
        {
          "internalType": "uint256",
          "name": "",
          "type": "uint256"
        }
      ],
      "stateMutability": "view",
      "type": "function",
      "constant": true
    },
    {
      "inputs": [
        {
          "internalType": "uint256",
          "name": "_id",
          "type": "uint256"
        }
      ],
      "name": "voteAdmin",
      "outputs": [],
      "stateMutability": "nonpayable",
      "type": "function"
    },
    {
      "inputs": [],
      "name": "resultAdmin",
      "outputs": [
        {
          "internalType": "address",
          "name": "",
          "type": "address"
        },
        {
          "internalType": "uint256",
          "name": "",
          "type": "uint256"
        }
      ],
      "stateMutability": "nonpayable",
      "type": "function"
    },
    {
      "inputs": [
        {
          "internalType": "uint256",
          "name": "_id",
          "type": "uint256"
        }
      ],
      "name": "viewCandidates",
      "outputs": [
        {
          "internalType": "address",
          "name": "",
          "type": "address"
        }
      ],
      "stateMutability": "view",
      "type": "function",
      "constant": true
    }
  ],
  "bytecode": "0x608060405273e4a93c164f1c194dfb58c513d302e7d912e8915f600360006101000a81548173ffffffffffffffffffffffffffffffffffffffff021916908373ffffffffffffffffffffffffffffffffffffffff1602179055503480156200006657600080fd5b50336000806101000a81548173ffffffffffffffffffffffffffffffffffffffff021916908373ffffffffffffffffffffffffffffffffffffffff16021790555033600160006101000a81548173ffffffffffffffffffffffffffffffffffffffff021916908373ffffffffffffffffffffffffffffffffffffffff160217905550600860405180608001604052806000600281111562000130577f4e487b7100000000000000000000000000000000000000000000000000000000600052602160045260246000fd5b81526020016002808111156200016f577f4e487b7100000000000000000000000000000000000000000000000000000000600052602160045260246000fd5b8152602001600081526020013373ffffffffffffffffffffffffffffffffffffffff16815250908060018154018082558091505060019003906000526020600020906003020160009091909190915060008201518160000160006101000a81548160ff0219169083600281111562000210577f4e487b7100000000000000000000000000000000000000000000000000000000600052602160045260246000fd5b021790555060208201518160000160016101000a81548160ff0219169083600281111562000267577f4e487b7100000000000000000000000000000000000000000000000000000000600052602160045260246000fd5b02179055506040820151816001015560608201518160020160006101000a81548173ffffffffffffffffffffffffffffffffffffffff021916908373ffffffffffffffffffffffffffffffffffffffff1602179055505050600860405180608001604052806001600281111562000307577f4e487b7100000000000000000000000000000000000000000000000000000000600052602160045260246000fd5b815260200160028081111562000346577f4e487b7100000000000000000000000000000000000000000000000000000000600052602160045260246000fd5b8152602001600081526020013373ffffffffffffffffffffffffffffffffffffffff16815250908060018154018082558091505060019003906000526020600020906003020160009091909190915060008201518160000160006101000a81548160ff02191690836002811115620003e7577f4e487b7100000000000000000000000000000000000000000000000000000000600052602160045260246000fd5b021790555060208201518160000160016101000a81548160ff021916908360028111156200043e577f4e487b7100000000000000000000000000000000000000000000000000000000600052602160045260246000fd5b02179055506040820151816001015560608201518160020160006101000a81548173ffffffffffffffffffffffffffffffffffffffff021916908373ffffffffffffffffffffffffffffffffffffffff160217905550505060086040518060800160405280600280811115620004dd577f4e487b7100000000000000000000000000000000000000000000000000000000600052602160045260246000fd5b81526020016002808111156200051c577f4e487b7100000000000000000000000000000000000000000000000000000000600052602160045260246000fd5b8152602001600081526020013373ffffffffffffffffffffffffffffffffffffffff16815250908060018154018082558091505060019003906000526020600020906003020160009091909190915060008201518160000160006101000a81548160ff02191690836002811115620005bd577f4e487b7100000000000000000000000000000000000000000000000000000000600052602160045260246000fd5b021790555060208201518160000160016101000a81548160ff0219169083600281111562000614577f4e487b7100000000000000000000000000000000000000000000000000000000600052602160045260246000fd5b02179055506040820151816001015560608201518160020160006101000a81548173ffffffffffffffffffffffffffffffffffffffff021916908373ffffffffffffffffffffffffffffffffffffffff1602179055505050613864806200067c6000396000f3fe6080604052600436106101095760003560e01c80638f32d59b11610095578063db618f8511610064578063db618f8514610346578063ed88c68e1461035d578063eed7c12814610367578063f3b153181461037e578063f851a440146103a957610109565b80638f32d59b146102ab578063a2dd6bfc146102d6578063ab8196cf14610301578063d99d34ee1461032a57610109565b80633af7c206116100dc5780633af7c206146101c05780633daeadd8146101fe5780633ea263841461022a5780633ff1e05b146102555780638da5cb5b1461028057610109565b8063013cf08b1461010e5780630a01bda21461014e5780631aa3a00814610179578063263970fc14610183575b600080fd5b34801561011a57600080fd5b5061013560048036038101906101309190612d07565b6103d4565b60405161014594939291906132c1565b60405180910390f35b34801561015a57600080fd5b5061016361044e565b60405161017091906132a6565b60405180910390f35b61018161055a565b005b34801561018f57600080fd5b506101aa60048036038101906101a59190612d07565b610776565b6040516101b79190613247565b60405180910390f35b3480156101cc57600080fd5b506101e760048036038101906101e29190612d07565b610805565b6040516101f5929190613262565b60405180910390f35b34801561020a57600080fd5b506102136108f3565b604051610221929190613262565b60405180910390f35b34801561023657600080fd5b5061023f610b7a565b60405161024c919061328b565b60405180910390f35b34801561026157600080fd5b5061026a610b8d565b6040516102779190613546565b60405180910390f35b34801561028c57600080fd5b50610295610b95565b6040516102a29190613247565b60405180910390f35b3480156102b757600080fd5b506102c0610bbe565b6040516102cd919061328b565b60405180910390f35b3480156102e257600080fd5b506102eb610c15565b6040516102f89190613546565b60405180910390f35b34801561030d57600080fd5b5061032860048036038101906103239190612d07565b610c8a565b005b610344600480360381019061033f9190612d07565b610f8e565b005b34801561035257600080fd5b5061035b61167d565b005b61036561228f565b005b34801561037357600080fd5b5061037c6123a5565b005b34801561038a57600080fd5b50610393612923565b6040516103a09190613546565b60405180910390f35b3480156103b557600080fd5b506103be612a22565b6040516103cb9190613247565b60405180910390f35b600881815481106103e457600080fd5b90600052602060002090600302016000915090508060000160009054906101000a900460ff16908060000160019054906101000a900460ff16908060010154908060020160009054906101000a900473ffffffffffffffffffffffffffffffffffffffff16905084565b6000806009805490501415610498576040517f08c379a000000000000000000000000000000000000000000000000000000000815260040161048f906134a6565b60405180910390fd5b600360149054906101000a900460ff16156104e8576040517f08c379a00000000000000000000000000000000000000000000000000000000081526004016104df906133c6565b60405180910390fd5b600960016009805490506104fc9190613653565b81548110610533577f4e487b7100000000000000000000000000000000000000000000000000000000600052603260045260246000fd5b906000526020600020906004020160000160000160019054906101000a900460ff16905090565b600360149054906101000a900460ff16156105aa576040517f08c379a00000000000000000000000000000000000000000000000000000000081526004016105a1906133c6565b60405180910390fd5b60005b60025481101561066f573373ffffffffffffffffffffffffffffffffffffffff166007600083815260200190815260200160002060000160009054906101000a900473ffffffffffffffffffffffffffffffffffffffff1673ffffffffffffffffffffffffffffffffffffffff16141561065c576040517f08c379a000000000000000000000000000000000000000000000000000000000815260040161065390613386565b60405180910390fd5b808061066790613719565b9150506105ad565b50633b9aca0034101561068157600080fd5b3360076000600254815260200190815260200160002060000160006101000a81548173ffffffffffffffffffffffffffffffffffffffff021916908373ffffffffffffffffffffffffffffffffffffffff1602179055503460076000600254815260200190815260200160002060010181905550600360076000600254815260200190815260200160002060020160006101000a81548160ff02191690836003811115610757577f4e487b7100000000000000000000000000000000000000000000000000000000600052602160045260246000fd5b02179055506002600081548092919061076f90613719565b9190505550565b6000600360159054906101000a900460ff166107c7576040517f08c379a00000000000000000000000000000000000000000000000000000000081526004016107be90613466565b60405180910390fd5b600d600083815260200190815260200160002060000160009054906101000a900473ffffffffffffffffffffffffffffffffffffffff169050919050565b600080600360149054906101000a900460ff1615610858576040517f08c379a000000000000000000000000000000000000000000000000000000000815260040161084f906133c6565b60405180910390fd5b600254831061089c576040517f08c379a000000000000000000000000000000000000000000000000000000000815260040161089390613406565b60405180910390fd5b6007600084815260200190815260200160002060000160009054906101000a900473ffffffffffffffffffffffffffffffffffffffff16600760008581526020019081526020016000206001015491509150915091565b600080600360159054906101000a900460ff16610945576040517f08c379a000000000000000000000000000000000000000000000000000000000815260040161093c90613426565b60405180910390fd5b60326009600160098054905061095b9190613653565b81548110610992577f4e487b7100000000000000000000000000000000000000000000000000000000600052603260045260246000fd5b906000526020600020906004020160030154436109af9190613653565b116109ef576040517f08c379a00000000000000000000000000000000000000000000000000000000081526004016109e6906133e6565b60405180910390fd5b60008060005b600254811015610a3457600d600082815260200190815260200160002060010154831015610a21578091505b8080610a2c90613719565b9150506109f5565b50600d600082815260200190815260200160002060000160009054906101000a900473ffffffffffffffffffffffffffffffffffffffff166000806101000a81548173ffffffffffffffffffffffffffffffffffffffff021916908373ffffffffffffffffffffffffffffffffffffffff160217905550600d600082815260200190815260200160002060000160009054906101000a900473ffffffffffffffffffffffffffffffffffffffff16600160006101000a81548173ffffffffffffffffffffffffffffffffffffffff021916908373ffffffffffffffffffffffffffffffffffffffff1602179055506007600082815260200190815260200160002060000160009054906101000a900473ffffffffffffffffffffffffffffffffffffffff16600d6000838152602001908152602001600020600101549350935050509091565b600360159054906101000a900460ff1681565b600047905090565b60008060009054906101000a900473ffffffffffffffffffffffffffffffffffffffff16905090565b60008060009054906101000a900473ffffffffffffffffffffffffffffffffffffffff1673ffffffffffffffffffffffffffffffffffffffff163373ffffffffffffffffffffffffffffffffffffffff1614905090565b6000600360149054906101000a900460ff1615610c67576040517f08c379a0000000000000000000000000000000000000000000000000000000008152600401610c5e906133c6565b60405180910390fd5b60076000610c73612a48565b815260200190815260200160002060010154905090565b600360149054906101000a900460ff1615610cda576040517f08c379a0000000000000000000000000000000000000000000000000000000008152600401610cd1906133c6565b60405180910390fd5b6000805b600254811015610d6a576007600082815260200190815260200160002060000160009054906101000a900473ffffffffffffffffffffffffffffffffffffffff1673ffffffffffffffffffffffffffffffffffffffff163373ffffffffffffffffffffffffffffffffffffffff161415610d5757600191505b8080610d6290613719565b915050610cde565b506001151581151514610db2576040517f08c379a0000000000000000000000000000000000000000000000000000000008152600401610da990613346565b60405180910390fd5b600360159054906101000a900460ff16610e01576040517f08c379a0000000000000000000000000000000000000000000000000000000008152600401610df890613426565b60405180910390fd5b6002548210610e45576040517f08c379a0000000000000000000000000000000000000000000000000000000008152600401610e3c906133a6565b60405180910390fd5b6000600f541415610e5957610e58612b78565b5b60011515600e60003373ffffffffffffffffffffffffffffffffffffffff1673ffffffffffffffffffffffffffffffffffffffff16815260200190815260200160002060009054906101000a900460ff16151514610eec576040517f08c379a0000000000000000000000000000000000000000000000000000000008152600401610ee390613486565b60405180910390fd5b6001600d60008481526020019081526020016000206001016000828254610f139190613572565b925050819055506000600e60003373ffffffffffffffffffffffffffffffffffffffff1673ffffffffffffffffffffffffffffffffffffffff16815260200190815260200160002060006101000a81548160ff021916908315150217905550600f6000815480929190610f8590613719565b91905055505050565b600360149054906101000a900460ff1615610fde576040517f08c379a0000000000000000000000000000000000000000000000000000000008152600401610fd5906133c6565b60405180910390fd5b3373ffffffffffffffffffffffffffffffffffffffff1660076000611001612a48565b815260200190815260200160002060000160009054906101000a900473ffffffffffffffffffffffffffffffffffffffff1673ffffffffffffffffffffffffffffffffffffffff161461105357600080fd5b633b9aca0034101561109a576040517f08c379a000000000000000000000000000000000000000000000000000000000815260040161109190613366565b60405180910390fd5b60088054905081106110e1576040517f08c379a00000000000000000000000000000000000000000000000000000000081526004016110d8906134c6565b60405180910390fd5b60006009805490501461120e57600280811115611127577f4e487b7100000000000000000000000000000000000000000000000000000000600052602160045260246000fd5b6009600160098054905061113b9190613653565b81548110611172577f4e487b7100000000000000000000000000000000000000000000000000000000600052603260045260246000fd5b906000526020600020906004020160000160000160019054906101000a900460ff1660028111156111cc577f4e487b7100000000000000000000000000000000000000000000000000000000600052602160045260246000fd5b141561120d576040517f08c379a0000000000000000000000000000000000000000000000000000000008152600401611204906134e6565b60405180910390fd5b5b6009604051806040016040528060088481548110611255577f4e487b7100000000000000000000000000000000000000000000000000000000600052603260045260246000fd5b90600052602060002090600302016040518060800160405290816000820160009054906101000a900460ff1660028111156112b9577f4e487b7100000000000000000000000000000000000000000000000000000000600052602160045260246000fd5b60028111156112f1577f4e487b7100000000000000000000000000000000000000000000000000000000600052602160045260246000fd5b81526020016000820160019054906101000a900460ff166002811115611340577f4e487b7100000000000000000000000000000000000000000000000000000000600052602160045260246000fd5b6002811115611378577f4e487b7100000000000000000000000000000000000000000000000000000000600052602160045260246000fd5b8152602001600182015481526020016002820160009054906101000a900473ffffffffffffffffffffffffffffffffffffffff1673ffffffffffffffffffffffffffffffffffffffff1673ffffffffffffffffffffffffffffffffffffffff1681525050815260200143815250908060018154018082558091505060019003906000526020600020906004020160009091909190915060008201518160000160008201518160000160006101000a81548160ff02191690836002811115611468577f4e487b7100000000000000000000000000000000000000000000000000000000600052602160045260246000fd5b021790555060208201518160000160016101000a81548160ff021916908360028111156114be577f4e487b7100000000000000000000000000000000000000000000000000000000600052602160045260246000fd5b02179055506040820151816001015560608201518160020160006101000a81548173ffffffffffffffffffffffffffffffffffffffff021916908373ffffffffffffffffffffffffffffffffffffffff160217905550505060208201518160030155505033600960016009805490506115379190613653565b8154811061156e577f4e487b7100000000000000000000000000000000000000000000000000000000600052603260045260246000fd5b906000526020600020906004020160000160020160006101000a81548173ffffffffffffffffffffffffffffffffffffffff021916908373ffffffffffffffffffffffffffffffffffffffff16021790555060005b6002548110156116455760026007600083815260200190815260200160002060020160006101000a81548160ff0219169083600381111561162d577f4e487b7100000000000000000000000000000000000000000000000000000000600052602160045260246000fd5b0217905550808061163d90613719565b9150506115c3565b503460076000611653612a48565b815260200190815260200160002060010160008282546116739190613572565b9250508190555050565b600060098054905014156116c6576040517f08c379a00000000000000000000000000000000000000000000000000000000081526004016116bd906134a6565b60405180910390fd5b600360149054906101000a900460ff1615611716576040517f08c379a000000000000000000000000000000000000000000000000000000000815260040161170d906133c6565b60405180910390fd5b60028081111561174f577f4e487b7100000000000000000000000000000000000000000000000000000000600052602160045260246000fd5b600960016009805490506117639190613653565b8154811061179a577f4e487b7100000000000000000000000000000000000000000000000000000000600052603260045260246000fd5b906000526020600020906004020160000160000160019054906101000a900460ff1660028111156117f4577f4e487b7100000000000000000000000000000000000000000000000000000000600052602160045260246000fd5b14611834576040517f08c379a000000000000000000000000000000000000000000000000000000000815260040161182b90613326565b60405180910390fd5b600a6009600160098054905061184a9190613653565b81548110611881577f4e487b7100000000000000000000000000000000000000000000000000000000600052603260045260246000fd5b9060005260206000209060040201600301544361189e9190613653565b116118de576040517f08c379a00000000000000000000000000000000000000000000000000000000081526004016118d5906133e6565b60405180910390fd5b6000600960016009805490506118f49190613653565b8154811061192b577f4e487b7100000000000000000000000000000000000000000000000000000000600052603260045260246000fd5b90600052602060002090600402016000016001015490506000816002546119529190613653565b8211156119625760019050611ada565b816002546119709190613653565b821015611a2a5760016009600160098054905061198d9190613653565b815481106119c4577f4e487b7100000000000000000000000000000000000000000000000000000000600052603260045260246000fd5b906000526020600020906004020160000160000160016101000a81548160ff02191690836002811115611a20577f4e487b7100000000000000000000000000000000000000000000000000000000600052602160045260246000fd5b0217905550611ad9565b600160096001600980549050611a409190613653565b81548110611a77577f4e487b7100000000000000000000000000000000000000000000000000000000600052603260045260246000fd5b906000526020600020906004020160000160000160016101000a81548160ff02191690836002811115611ad3577f4e487b7100000000000000000000000000000000000000000000000000000000600052602160045260246000fd5b02179055505b5b801561228b5760016002811115611b1a577f4e487b7100000000000000000000000000000000000000000000000000000000600052602160045260246000fd5b60096001600980549050611b2e9190613653565b81548110611b65577f4e487b7100000000000000000000000000000000000000000000000000000000600052603260045260246000fd5b906000526020600020906004020160000160000160009054906101000a900460ff166002811115611bbf577f4e487b7100000000000000000000000000000000000000000000000000000000600052602160045260246000fd5b1415611d3c576001600a60006101000a81548160ff021916908315150217905550611be861228f565b6000600a60006101000a81548160ff02191690831515021790555060005b600254811015611d365760036007600083815260200190815260200160002060020160006101000a81548160ff02191690836003811115611c70577f4e487b7100000000000000000000000000000000000000000000000000000000600052602160045260246000fd5b0217905550600060096001600980549050611c8b9190613653565b81548110611cc2577f4e487b7100000000000000000000000000000000000000000000000000000000600052603260045260246000fd5b906000526020600020906004020160000160000160016101000a81548160ff02191690836002811115611d1e577f4e487b7100000000000000000000000000000000000000000000000000000000600052602160045260246000fd5b02179055508080611d2e90613719565b915050611c06565b5061228a565b60006002811115611d76577f4e487b7100000000000000000000000000000000000000000000000000000000600052602160045260246000fd5b60096001600980549050611d8a9190613653565b81548110611dc1577f4e487b7100000000000000000000000000000000000000000000000000000000600052603260045260246000fd5b906000526020600020906004020160000160000160009054906101000a900460ff166002811115611e1b577f4e487b7100000000000000000000000000000000000000000000000000000000600052602160045260246000fd5b1415612023576001600360156101000a81548160ff021916908315150217905550600060096001600980549050611e529190613653565b81548110611e89577f4e487b7100000000000000000000000000000000000000000000000000000000600052603260045260246000fd5b906000526020600020906004020160000160000160016101000a81548160ff02191690836002811115611ee5577f4e487b7100000000000000000000000000000000000000000000000000000000600052602160045260246000fd5b021790555060005b60025481101561201d5760036007600083815260200190815260200160002060020160006101000a81548160ff02191690836003811115611f57577f4e487b7100000000000000000000000000000000000000000000000000000000600052602160045260246000fd5b0217905550600060096001600980549050611f729190613653565b81548110611fa9577f4e487b7100000000000000000000000000000000000000000000000000000000600052603260045260246000fd5b906000526020600020906004020160000160000160016101000a81548160ff02191690836002811115612005577f4e487b7100000000000000000000000000000000000000000000000000000000600052602160045260246000fd5b0217905550808061201590613719565b915050611eed565b50612289565b60003a9050600060016002546120399190613572565b8261204491906135f9565b6002544761205291906135c8565b61205c9190613653565b905060005b6002548110156120fb576007600082815260200190815260200160002060000160009054906101000a900473ffffffffffffffffffffffffffffffffffffffff1673ffffffffffffffffffffffffffffffffffffffff166108fc839081150290604051600060405180830381858888f193505050501580156120e7573d6000803e3d6000fd5b5080806120f390613719565b915050612061565b5060005b6002548110156121725760006007600083815260200190815260200160002060000160006101000a81548173ffffffffffffffffffffffffffffffffffffffff021916908373ffffffffffffffffffffffffffffffffffffffff160217905550808061216a90613719565b9150506120ff565b506000600960016009805490506121899190613653565b815481106121c0577f4e487b7100000000000000000000000000000000000000000000000000000000600052603260045260246000fd5b906000526020600020906004020160000160000160016101000a81548160ff0219169083600281111561221c577f4e487b7100000000000000000000000000000000000000000000000000000000600052602160045260246000fd5b021790555060006002819055506000600160006101000a81548173ffffffffffffffffffffffffffffffffffffffff021916908373ffffffffffffffffffffffffffffffffffffffff1602179055506001600360146101000a81548160ff02191690831515021790555050505b5b5b5050565b600360149054906101000a900460ff16156122df576040517f08c379a00000000000000000000000000000000000000000000000000000000081526004016122d6906133c6565b60405180910390fd5b600a60009054906101000a900460ff1661232e576040517f08c379a000000000000000000000000000000000000000000000000000000000815260040161232590613526565b60405180910390fd5b600360009054906101000a900473ffffffffffffffffffffffffffffffffffffffff1673ffffffffffffffffffffffffffffffffffffffff166108fc600a4761237791906135c8565b9081150290604051600060405180830381858888f193505050501580156123a2573d6000803e3d6000fd5b50565b600360149054906101000a900460ff16156123f5576040517f08c379a00000000000000000000000000000000000000000000000000000000081526004016123ec906133c6565b60405180910390fd5b6000805b600254811015612485576007600082815260200190815260200160002060000160009054906101000a900473ffffffffffffffffffffffffffffffffffffffff1673ffffffffffffffffffffffffffffffffffffffff163373ffffffffffffffffffffffffffffffffffffffff16141561247257600191505b808061247d90613719565b9150506123f9565b5060011515811515146124cd576040517f08c379a00000000000000000000000000000000000000000000000000000000081526004016124c490613346565b60405180910390fd5b60006009805490501415612516576040517f08c379a000000000000000000000000000000000000000000000000000000000815260040161250d906134a6565b60405180910390fd5b600360149054906101000a900460ff1615612566576040517f08c379a000000000000000000000000000000000000000000000000000000000815260040161255d906133c6565b60405180910390fd5b600060038111156125a0577f4e487b7100000000000000000000000000000000000000000000000000000000600052602160045260246000fd5b600760006125ac612a48565b815260200190815260200160002060020160009054906101000a900460ff166003811115612603577f4e487b7100000000000000000000000000000000000000000000000000000000600052602160045260246000fd5b1415612644576040517f08c379a000000000000000000000000000000000000000000000000000000000815260040161263b90613486565b60405180910390fd5b6002600381111561267e577f4e487b7100000000000000000000000000000000000000000000000000000000600052602160045260246000fd5b6007600061268a612a48565b815260200190815260200160002060020160009054906101000a900460ff1660038111156126e1577f4e487b7100000000000000000000000000000000000000000000000000000000600052602160045260246000fd5b14612721576040517f08c379a000000000000000000000000000000000000000000000000000000000815260040161271890613506565b60405180910390fd5b60028081111561275a577f4e487b7100000000000000000000000000000000000000000000000000000000600052602160045260246000fd5b6009600160098054905061276e9190613653565b815481106127a5577f4e487b7100000000000000000000000000000000000000000000000000000000600052603260045260246000fd5b906000526020600020906004020160000160000160019054906101000a900460ff1660028111156127ff577f4e487b7100000000000000000000000000000000000000000000000000000000600052602160045260246000fd5b1461283f576040517f08c379a000000000000000000000000000000000000000000000000000000000815260040161283690613306565b60405180910390fd5b600960016009805490506128539190613653565b8154811061288a577f4e487b7100000000000000000000000000000000000000000000000000000000600052603260045260246000fd5b906000526020600020906004020160000160010160008154809291906128af90613719565b91905055506000600760006128c2612a48565b815260200190815260200160002060020160006101000a81548160ff0219169083600381111561291b577f4e487b7100000000000000000000000000000000000000000000000000000000600052602160045260246000fd5b021790555050565b600080600980549050141561296d576040517f08c379a0000000000000000000000000000000000000000000000000000000008152600401612964906134a6565b60405180910390fd5b600360149054906101000a900460ff16156129bd576040517f08c379a00000000000000000000000000000000000000000000000000000000081526004016129b4906133c6565b60405180910390fd5b600960016009805490506129d19190613653565b81548110612a08577f4e487b7100000000000000000000000000000000000000000000000000000000600052603260045260246000fd5b906000526020600020906004020160000160010154905090565b600160009054906101000a900473ffffffffffffffffffffffffffffffffffffffff1681565b6000600360149054906101000a900460ff1615612a9a576040517f08c379a0000000000000000000000000000000000000000000000000000000008152600401612a91906133c6565b60405180910390fd5b60008060005b600254811015612b2f573373ffffffffffffffffffffffffffffffffffffffff166007600083815260200190815260200160002060000160009054906101000a900473ffffffffffffffffffffffffffffffffffffffff1673ffffffffffffffffffffffffffffffffffffffff161415612b1c57809250600191505b8080612b2790613719565b915050612aa0565b5080612b70576040517f08c379a0000000000000000000000000000000000000000000000000000000008152600401612b6790613446565b60405180910390fd5b819250505090565b60005b600254811015612cef5760405180604001604052806007600084815260200190815260200160002060000160009054906101000a900473ffffffffffffffffffffffffffffffffffffffff1673ffffffffffffffffffffffffffffffffffffffff1681526020016000815250600d600083815260200190815260200160002060008201518160000160006101000a81548173ffffffffffffffffffffffffffffffffffffffff021916908373ffffffffffffffffffffffffffffffffffffffff160217905550602082015181600101559050506001600e60006007600085815260200190815260200160002060000160009054906101000a900473ffffffffffffffffffffffffffffffffffffffff1673ffffffffffffffffffffffffffffffffffffffff1673ffffffffffffffffffffffffffffffffffffffff16815260200190815260200160002060006101000a81548160ff0219169083151502179055508080612ce790613719565b915050612b7b565b50565b600081359050612d0181613817565b92915050565b600060208284031215612d1957600080fd5b6000612d2784828501612cf2565b91505092915050565b612d3981613687565b82525050565b612d4881613699565b82525050565b612d57816136f5565b82525050565b612d6681613707565b82525050565b6000612d79601e83613561565b91507f4e6f206e6577207375626d697373696f6e7320746f20766f746520666f7200006000830152602082019050919050565b6000612db9602483613561565b91507f4e6f20616374697665207375626d697373696f6e7320746f2066696e6420726560008301527f73756c74000000000000000000000000000000000000000000000000000000006020830152604082019050919050565b6000612e1f601983613561565b91507f4f6e6c7920616363657369626c6520746f206d656d62657273000000000000006000830152602082019050919050565b6000612e5f602683613561565b91507f4e6f7420656e6f7567682065746820746f207375626d6974207468697320707260008301527f6f706f73616c00000000000000000000000000000000000000000000000000006020830152604082019050919050565b6000612ec5601683613561565b91507f4d656d62657220616c72656164792065786973742021000000000000000000006000830152602082019050919050565b6000612f05600a83613561565b91507f496e76616c6964204964000000000000000000000000000000000000000000006000830152602082019050919050565b6000612f45601283613561565b91507f436f6e74726163742064657374726f79656400000000000000000000000000006000830152602082019050919050565b6000612f85601483613561565b91507f54696d65207374696c6c2072656d61696e696e670000000000000000000000006000830152602082019050919050565b6000612fc5601483613561565b91507f4d656d62657220646f65736e27742065786973740000000000000000000000006000830152602082019050919050565b6000613005601083613561565b91507f4e6f2073657373696f6e206578697374000000000000000000000000000000006000830152602082019050919050565b6000613045601683613561565b91507f4d656d62657220646f65736e27742065786973742021000000000000000000006000830152602082019050919050565b6000613085601783613561565b91507f4e6f20766f74696e672073657373696f6e2065786973740000000000000000006000830152602082019050919050565b60006130c5600f83613561565b91507f416c726561647920766f746564202100000000000000000000000000000000006000830152602082019050919050565b6000613105601583613561565b91507f5375626d697373696f6e73206e6f7420666f756e6400000000000000000000006000830152602082019050919050565b6000613145601183613561565b91507f4e6f2070726f706f73616c20666f756e640000000000000000000000000000006000830152602082019050919050565b6000613185601b83613561565b91507f50726576696f7573207375626d697373696f6e2070656e64696e6700000000006000830152602082019050919050565b60006131c5601c83613561565b91507f566f74696e672073657373696f6e20646f65736e2774206578697374000000006000830152602082019050919050565b6000613205601383613561565b91507f5065726d697373696f6e2064656e6965642021000000000000000000000000006000830152602082019050919050565b613241816136eb565b82525050565b600060208201905061325c6000830184612d30565b92915050565b60006040820190506132776000830185612d30565b6132846020830184613238565b9392505050565b60006020820190506132a06000830184612d3f565b92915050565b60006020820190506132bb6000830184612d4e565b92915050565b60006080820190506132d66000830187612d5d565b6132e36020830186612d4e565b6132f06040830185613238565b6132fd6060830184612d30565b95945050505050565b6000602082019050818103600083015261331f81612d6c565b9050919050565b6000602082019050818103600083015261333f81612dac565b9050919050565b6000602082019050818103600083015261335f81612e12565b9050919050565b6000602082019050818103600083015261337f81612e52565b9050919050565b6000602082019050818103600083015261339f81612eb8565b9050919050565b600060208201905081810360008301526133bf81612ef8565b9050919050565b600060208201905081810360008301526133df81612f38565b9050919050565b600060208201905081810360008301526133ff81612f78565b9050919050565b6000602082019050818103600083015261341f81612fb8565b9050919050565b6000602082019050818103600083015261343f81612ff8565b9050919050565b6000602082019050818103600083015261345f81613038565b9050919050565b6000602082019050818103600083015261347f81613078565b9050919050565b6000602082019050818103600083015261349f816130b8565b9050919050565b600060208201905081810360008301526134bf816130f8565b9050919050565b600060208201905081810360008301526134df81613138565b9050919050565b600060208201905081810360008301526134ff81613178565b9050919050565b6000602082019050818103600083015261351f816131b8565b9050919050565b6000602082019050818103600083015261353f816131f8565b9050919050565b600060208201905061355b6000830184613238565b92915050565b600082825260208201905092915050565b600061357d826136eb565b9150613588836136eb565b9250827fffffffffffffffffffffffffffffffffffffffffffffffffffffffffffffffff038211156135bd576135bc613762565b5b828201905092915050565b60006135d3826136eb565b91506135de836136eb565b9250826135ee576135ed613791565b5b828204905092915050565b6000613604826136eb565b915061360f836136eb565b9250817fffffffffffffffffffffffffffffffffffffffffffffffffffffffffffffffff048311821515161561364857613647613762565b5b828202905092915050565b600061365e826136eb565b9150613669836136eb565b92508282101561367c5761367b613762565b5b828203905092915050565b6000613692826136cb565b9050919050565b60008115159050919050565b60008190506136b3826137ef565b919050565b60008190506136c682613803565b919050565b600073ffffffffffffffffffffffffffffffffffffffff82169050919050565b6000819050919050565b6000613700826136a5565b9050919050565b6000613712826136b8565b9050919050565b6000613724826136eb565b91507fffffffffffffffffffffffffffffffffffffffffffffffffffffffffffffffff82141561375757613756613762565b5b600182019050919050565b7f4e487b7100000000000000000000000000000000000000000000000000000000600052601160045260246000fd5b7f4e487b7100000000000000000000000000000000000000000000000000000000600052601260045260246000fd5b7f4e487b7100000000000000000000000000000000000000000000000000000000600052602160045260246000fd5b60038110613800576137ff6137c0565b5b50565b60038110613814576138136137c0565b5b50565b613820816136eb565b811461382b57600080fd5b5056fea2646970667358221220b8b72f71280efc2857b59c5475ef7443269d021996513a99d2dc494211f7151764736f6c63430008000033",
  "immutableReferences": {},
  "source": "// SPDX-License-Identifier: MIT\r\n    pragma solidity^0.8.0;\r\n\r\n   import \"./myDao.sol\";\r\n\r\ncontract Voting is Mydao {\r\n\r\n    struct Candidate {\r\n        address candidateAddress;\r\n        uint votes;\r\n    }\r\n\r\n    Candidate candidate;\r\n    mapping(uint=>Candidate) candidates;\r\n    mapping(address=>bool) memberData;\r\n    uint voteCount;\r\n\r\n    \r\n\r\n    function addCandidates() internal {\r\n\r\n        for(uint i=0;i<memberCount;i++){\r\n            \r\n            candidates[i]=Candidate({\r\n                candidateAddress : memberDetails[i].memberAddress,\r\n                votes : 0\r\n            });\r\n\r\n            memberData[memberDetails[i].memberAddress]=true;\r\n        }\r\n\r\n    }\r\n    \r\n\r\n    function voteAdmin(uint _id) public verifyMember {\r\n        require(newAdmin,\"No session exist\");\r\n        if(_id>=memberCount){\r\n        revert(\"Invalid Id\");\r\n        }\r\n        if(voteCount==0){\r\n            addCandidates();\r\n        }\r\n        \r\n        require(memberData[msg.sender]==true,\"Already voted !\");\r\n        candidates[_id].votes+=1;\r\n        memberData[msg.sender]=false;\r\n        voteCount++;\r\n    }\r\n\r\n    function resultAdmin() public returns(address,uint){\r\n        require(newAdmin,\"No session exist\");\r\n        require(block.number-submittedProposals[submittedProposals.length-1].blockNumber>50,\"Time still remaining\");\r\n        uint temp;\r\n        uint winner;\r\n         for(uint i=0;i<memberCount;i++) {\r\n\r\n             if(temp<candidates[i].votes){\r\n\r\n                 winner = i;\r\n             }\r\n             \r\n         }\r\n        _owner=candidates[winner].candidateAddress;\r\n        admin = candidates[winner].candidateAddress;\r\n         return (memberDetails[winner].memberAddress,candidates[winner].votes);\r\n\r\n    }\r\n\r\n    function viewCandidates(uint _id) public view returns(address){\r\n        require(newAdmin,\"No voting session exist\");\r\n        return candidates[_id].candidateAddress;\r\n    }\r\n}",
  "sourcePath": "C:\\Users\\manfa\\Desktop\\remix-backup-at-14h31min-2022-10-26\\.workspaces\\week17\\week 17\\contracts\\voting.sol",
  "compiler": {
    "name": "solc",
    "version": "0.8.0+commit.c7dfd78e.Emscripten.clang"
  },
  "schemaVersion": "3.4.10",
  "updatedAt": "2022-11-03T05:48:25.109Z",
  "networkType": "ethereum",
  "devdoc": {
    "kind": "dev",
    "methods": {},
    "version": 1
  },
  "userdoc": {
    "kind": "user",
    "methods": {},
    "version": 1
  }
}